{
  "contractName": "Certificate",
  "abi": [
    {
      "inputs": [],
      "stateMutability": "nonpayable",
      "type": "constructor"
    },
    {
      "anonymous": false,
      "inputs": [
        {
          "indexed": true,
          "internalType": "address",
          "name": "recipient",
          "type": "address"
        },
        {
          "indexed": false,
          "internalType": "uint8",
          "name": "certId",
          "type": "uint8"
        }
      ],
      "name": "CertificateIssued",
      "type": "event"
    },
    {
      "anonymous": false,
      "inputs": [
        {
          "indexed": false,
          "internalType": "uint8",
          "name": "certId",
          "type": "uint8"
        }
      ],
      "name": "CertificateRevoked",
      "type": "event"
    },
    {
      "inputs": [
        {
          "internalType": "uint8",
          "name": "",
          "type": "uint8"
        }
      ],
      "name": "certificates",
      "outputs": [
        {
          "internalType": "string",
          "name": "certificateId",
          "type": "string"
        },
        {
          "internalType": "string",
          "name": "recipientName",
          "type": "string"
        },
        {
          "internalType": "string",
          "name": "courseName",
          "type": "string"
        },
        {
          "internalType": "string",
          "name": "issuer",
          "type": "string"
        },
        {
          "internalType": "uint256",
          "name": "issueDate",
          "type": "uint256"
        },
        {
          "internalType": "uint256",
          "name": "expiryDate",
          "type": "uint256"
        },
        {
          "internalType": "bool",
          "name": "revoked",
          "type": "bool"
        }
      ],
      "stateMutability": "view",
      "type": "function",
      "constant": true
    },
    {
      "inputs": [],
      "name": "owner",
      "outputs": [
        {
          "internalType": "address",
          "name": "",
          "type": "address"
        }
      ],
      "stateMutability": "view",
      "type": "function",
      "constant": true
    },
    {
      "inputs": [
        {
          "internalType": "uint8",
          "name": "_certId",
          "type": "uint8"
        },
        {
          "internalType": "string",
          "name": "_certificateId",
          "type": "string"
        },
        {
          "internalType": "string",
          "name": "_recipientName",
          "type": "string"
        },
        {
          "internalType": "string",
          "name": "_courseName",
          "type": "string"
        },
        {
          "internalType": "string",
          "name": "_issuer",
          "type": "string"
        },
        {
          "internalType": "uint256",
          "name": "_issueDate",
          "type": "uint256"
        },
        {
          "internalType": "uint256",
          "name": "_expiryDate",
          "type": "uint256"
        }
      ],
      "name": "issueCertificate",
      "outputs": [],
      "stateMutability": "nonpayable",
      "type": "function"
    },
    {
      "inputs": [
        {
          "internalType": "uint8",
          "name": "_certId",
          "type": "uint8"
        }
      ],
      "name": "revokeCertificate",
      "outputs": [],
      "stateMutability": "nonpayable",
      "type": "function"
    },
    {
      "inputs": [
        {
          "internalType": "uint8",
          "name": "_certId",
          "type": "uint8"
        }
      ],
      "name": "verifyCertificate",
      "outputs": [
        {
          "internalType": "bool",
          "name": "",
          "type": "bool"
        }
      ],
      "stateMutability": "view",
      "type": "function",
      "constant": true
    }
  ],
  "bytecode": "0x608060405234801561000f575f80fd5b50335f806101000a81548173ffffffffffffffffffffffffffffffffffffffff021916908373ffffffffffffffffffffffffffffffffffffffff16021790555061126e8061005c5f395ff3fe608060405234801561000f575f80fd5b5060043610610055575f3560e01c80632a065ab41461005957806342a330c014610089578063876c0fa1146100bf5780638da5cb5b146100db578063c11806bc146100f9575b5f80fd5b610073600480360381019061006e91906108ab565b610115565b60405161008091906108f0565b60405180910390f35b6100a3600480360381019061009e91906108ab565b61016b565b6040516100b697969594939291906109ab565b60405180910390f35b6100d960048036038101906100d491906108ab565b6103cd565b005b6100e3610588565b6040516100f09190610a73565b60405180910390f35b610113600480360381019061010e9190610be2565b6105ab565b005b5f8060015f8460ff1660ff1681526020019081526020015f206004015414158015610164575060015f8360ff1660ff1681526020019081526020015f206006015f9054906101000a900460ff16155b9050919050565b6001602052805f5260405f205f91509050805f01805461018a90610d1c565b80601f01602080910402602001604051908101604052809291908181526020018280546101b690610d1c565b80156102015780601f106101d857610100808354040283529160200191610201565b820191905f5260205f20905b8154815290600101906020018083116101e457829003601f168201915b50505050509080600101805461021690610d1c565b80601f016020809104026020016040519081016040528092919081815260200182805461024290610d1c565b801561028d5780601f106102645761010080835404028352916020019161028d565b820191905f5260205f20905b81548152906001019060200180831161027057829003601f168201915b5050505050908060020180546102a290610d1c565b80601f01602080910402602001604051908101604052809291908181526020018280546102ce90610d1c565b80156103195780601f106102f057610100808354040283529160200191610319565b820191905f5260205f20905b8154815290600101906020018083116102fc57829003601f168201915b50505050509080600301805461032e90610d1c565b80601f016020809104026020016040519081016040528092919081815260200182805461035a90610d1c565b80156103a55780601f1061037c576101008083540402835291602001916103a5565b820191905f5260205f20905b81548152906001019060200180831161038857829003601f168201915b505050505090806004015490806005015490806006015f9054906101000a900460ff16905087565b5f8054906101000a900473ffffffffffffffffffffffffffffffffffffffff1673ffffffffffffffffffffffffffffffffffffffff163373ffffffffffffffffffffffffffffffffffffffff161461045a576040517f08c379a000000000000000000000000000000000000000000000000000000000815260040161045190610d96565b60405180910390fd5b5f60015f8360ff1660ff1681526020019081526020015f2060040154036104b6576040517f08c379a00000000000000000000000000000000000000000000000000000000081526004016104ad90610dfe565b60405180910390fd5b60015f8260ff1660ff1681526020019081526020015f206006015f9054906101000a900460ff161561051d576040517f08c379a000000000000000000000000000000000000000000000000000000000815260040161051490610e66565b60405180910390fd5b6001805f8360ff1660ff1681526020019081526020015f206006015f6101000a81548160ff0219169083151502179055507f4829eabbe6ce0f38c53c0ebee7c4ce69614c59463fe2b28a6c9f79c2123b8a758160405161057d9190610e93565b60405180910390a150565b5f8054906101000a900473ffffffffffffffffffffffffffffffffffffffff1681565b5f8054906101000a900473ffffffffffffffffffffffffffffffffffffffff1673ffffffffffffffffffffffffffffffffffffffff163373ffffffffffffffffffffffffffffffffffffffff1614610638576040517f08c379a000000000000000000000000000000000000000000000000000000000815260040161062f90610d96565b60405180910390fd5b6002866040516106489190610ee6565b90815260200160405180910390205f9054906101000a900460ff16156106a3576040517f08c379a000000000000000000000000000000000000000000000000000000000815260040161069a90610f46565b60405180910390fd5b5f60015f8960ff1660ff1681526020019081526020015f2060040154146106ff576040517f08c379a00000000000000000000000000000000000000000000000000000000081526004016106f690610fae565b60405180910390fd5b6040518060e001604052808781526020018681526020018581526020018481526020018381526020018281526020015f151581525060015f8960ff1660ff1681526020019081526020015f205f820151815f01908161075e9190611169565b5060208201518160010190816107749190611169565b50604082015181600201908161078a9190611169565b5060608201518160030190816107a09190611169565b506080820151816004015560a0820151816005015560c0820151816006015f6101000a81548160ff02191690831515021790555090505060016002876040516107e99190610ee6565b90815260200160405180910390205f6101000a81548160ff0219169083151502179055503373ffffffffffffffffffffffffffffffffffffffff167f09dd3437d7e13c6042207babeb70e03086e32f35731becf1403641936b51ec07886040516108539190610e93565b60405180910390a250505050505050565b5f604051905090565b5f80fd5b5f80fd5b5f60ff82169050919050565b61088a81610875565b8114610894575f80fd5b50565b5f813590506108a581610881565b92915050565b5f602082840312156108c0576108bf61086d565b5b5f6108cd84828501610897565b91505092915050565b5f8115159050919050565b6108ea816108d6565b82525050565b5f6020820190506109035f8301846108e1565b92915050565b5f81519050919050565b5f82825260208201905092915050565b5f5b83811015610940578082015181840152602081019050610925565b5f8484015250505050565b5f601f19601f8301169050919050565b5f61096582610909565b61096f8185610913565b935061097f818560208601610923565b6109888161094b565b840191505092915050565b5f819050919050565b6109a581610993565b82525050565b5f60e0820190508181035f8301526109c3818a61095b565b905081810360208301526109d7818961095b565b905081810360408301526109eb818861095b565b905081810360608301526109ff818761095b565b9050610a0e608083018661099c565b610a1b60a083018561099c565b610a2860c08301846108e1565b98975050505050505050565b5f73ffffffffffffffffffffffffffffffffffffffff82169050919050565b5f610a5d82610a34565b9050919050565b610a6d81610a53565b82525050565b5f602082019050610a865f830184610a64565b92915050565b5f80fd5b5f80fd5b7f4e487b71000000000000000000000000000000000000000000000000000000005f52604160045260245ffd5b610aca8261094b565b810181811067ffffffffffffffff82111715610ae957610ae8610a94565b5b80604052505050565b5f610afb610864565b9050610b078282610ac1565b919050565b5f67ffffffffffffffff821115610b2657610b25610a94565b5b610b2f8261094b565b9050602081019050919050565b828183375f83830152505050565b5f610b5c610b5784610b0c565b610af2565b905082815260208101848484011115610b7857610b77610a90565b5b610b83848285610b3c565b509392505050565b5f82601f830112610b9f57610b9e610a8c565b5b8135610baf848260208601610b4a565b91505092915050565b610bc181610993565b8114610bcb575f80fd5b50565b5f81359050610bdc81610bb8565b92915050565b5f805f805f805f60e0888a031215610bfd57610bfc61086d565b5b5f610c0a8a828b01610897565b975050602088013567ffffffffffffffff811115610c2b57610c2a610871565b5b610c378a828b01610b8b565b965050604088013567ffffffffffffffff811115610c5857610c57610871565b5b610c648a828b01610b8b565b955050606088013567ffffffffffffffff811115610c8557610c84610871565b5b610c918a828b01610b8b565b945050608088013567ffffffffffffffff811115610cb257610cb1610871565b5b610cbe8a828b01610b8b565b93505060a0610ccf8a828b01610bce565b92505060c0610ce08a828b01610bce565b91505092959891949750929550565b7f4e487b71000000000000000000000000000000000000000000000000000000005f52602260045260245ffd5b5f6002820490506001821680610d3357607f821691505b602082108103610d4657610d45610cef565b5b50919050565b7f4e6f7420617574686f72697a65640000000000000000000000000000000000005f82015250565b5f610d80600e83610913565b9150610d8b82610d4c565b602082019050919050565b5f6020820190508181035f830152610dad81610d74565b9050919050565b7f436572746966696361746520646f6573206e6f742065786973740000000000005f82015250565b5f610de8601a83610913565b9150610df382610db4565b602082019050919050565b5f6020820190508181035f830152610e1581610ddc565b9050919050565b7f436572746966696361746520616c7265616479207265766f6b656400000000005f82015250565b5f610e50601b83610913565b9150610e5b82610e1c565b602082019050919050565b5f6020820190508181035f830152610e7d81610e44565b9050919050565b610e8d81610875565b82525050565b5f602082019050610ea65f830184610e84565b92915050565b5f81905092915050565b5f610ec082610909565b610eca8185610eac565b9350610eda818560208601610923565b80840191505092915050565b5f610ef18284610eb6565b915081905092915050565b7f436572746966696361746520494420616c7265616479206578697374730000005f82015250565b5f610f30601d83610913565b9150610f3b82610efc565b602082019050919050565b5f6020820190508181035f830152610f5d81610f24565b9050919050565b7f436572746966696361746520616c7265616479206973737565640000000000005f82015250565b5f610f98601a83610913565b9150610fa382610f64565b602082019050919050565b5f6020820190508181035f830152610fc581610f8c565b9050919050565b5f819050815f5260205f209050919050565b5f6020601f8301049050919050565b5f82821b905092915050565b5f600883026110287fffffffffffffffffffffffffffffffffffffffffffffffffffffffffffffffff82610fed565b6110328683610fed565b95508019841693508086168417925050509392505050565b5f819050919050565b5f61106d61106861106384610993565b61104a565b610993565b9050919050565b5f819050919050565b61108683611053565b61109a61109282611074565b848454610ff9565b825550505050565b5f90565b6110ae6110a2565b6110b981848461107d565b505050565b5b818110156110dc576110d15f826110a6565b6001810190506110bf565b5050565b601f821115611121576110f281610fcc565b6110fb84610fde565b8101602085101561110a578190505b61111e61111685610fde565b8301826110be565b50505b505050565b5f82821c905092915050565b5f6111415f1984600802611126565b1980831691505092915050565b5f6111598383611132565b9150826002028217905092915050565b61117282610909565b67ffffffffffffffff81111561118b5761118a610a94565b5b6111958254610d1c565b6111a08282856110e0565b5f60209050601f8311600181146111d1575f84156111bf578287015190505b6111c9858261114e565b865550611230565b601f1984166111df86610fcc565b5f5b82811015611206578489015182556001820191506020850194506020810190506111e1565b86831015611223578489015161121f601f891682611132565b8355505b6001600288020188555050505b50505050505056fea26469706673582212201fe5a2ecbee089c67ad3003523465e410f6c27653412b2569aa41725f6d601e564736f6c63430008140033",
  "immutableReferences": {},
  "source": "// SPDX-License-Identifier: MIT\r\npragma solidity ^0.8.19;\r\n\r\ncontract Certificate {\r\n    address public owner;\r\n\r\n    struct CertificateData {\r\n        string certificateId;\r\n        string recipientName;\r\n        string courseName;\r\n        string issuer;\r\n        uint256 issueDate;\r\n        uint256 expiryDate;\r\n        bool revoked;\r\n    }\r\n\r\n    mapping(uint8 => CertificateData) public certificates;\r\n    mapping(string => bool) private existingCertificates; \r\n\r\n    event CertificateIssued(address indexed recipient, uint8 certId);\r\n    event CertificateRevoked(uint8 certId);\r\n\r\n    modifier onlyOwner() {\r\n        require(msg.sender == owner, \"Not authorized\");\r\n        _;\r\n    }\r\n\r\n    constructor() {\r\n        owner = msg.sender;\r\n    }\r\n\r\n    function issueCertificate(\r\n        uint8 _certId,\r\n        string memory _certificateId,\r\n        string memory _recipientName,\r\n        string memory _courseName,\r\n        string memory _issuer,\r\n        uint256 _issueDate,\r\n        uint256 _expiryDate\r\n    ) external onlyOwner {\r\n        require(!existingCertificates[_certificateId], \"Certificate ID already exists\");\r\n        require(certificates[_certId].issueDate == 0, \"Certificate already issued\");\r\n\r\n        certificates[_certId] = CertificateData(\r\n            _certificateId,\r\n            _recipientName,\r\n            _courseName,\r\n            _issuer,\r\n            _issueDate,\r\n            _expiryDate,\r\n            false\r\n        );\r\n        existingCertificates[_certificateId] = true;\r\n\r\n        emit CertificateIssued(msg.sender, _certId);\r\n    }\r\n\r\n    function revokeCertificate(uint8 _certId) external onlyOwner {\r\n        require(certificates[_certId].issueDate != 0, \"Certificate does not exist\");\r\n        require(!certificates[_certId].revoked, \"Certificate already revoked\");\r\n\r\n        certificates[_certId].revoked = true;\r\n\r\n        emit CertificateRevoked(_certId);\r\n    }\r\n\r\n    function verifyCertificate(uint8 _certId) external view returns (bool) {\r\n        return certificates[_certId].issueDate != 0 && !certificates[_certId].revoked;\r\n    }\r\n}\r\n",
  "sourcePath": "D:\\projects\\educhain\\dapp\\contracts\\Certification.sol",
  "compiler": {
    "name": "solc",
    "version": "0.8.20+commit.a1b79de6.Emscripten.clang"
  },
  "schemaVersion": "3.4.16",
  "updatedAt": "2025-02-28T10:37:52.997Z",
  "networkType": "ethereum",
  "devdoc": {
    "kind": "dev",
    "methods": {},
    "version": 1
  },
  "userdoc": {
    "kind": "user",
    "methods": {},
    "version": 1
  }
}