{
  "contractName": "Certificate",
  "abi": [
    {
      "inputs": [
        {
          "internalType": "address",
          "name": "",
          "type": "address"
        },
        {
          "internalType": "uint256",
          "name": "",
          "type": "uint256"
        }
      ],
      "name": "certificateIds",
      "outputs": [
        {
          "internalType": "uint8",
          "name": "",
          "type": "uint8"
        }
      ],
      "stateMutability": "view",
      "type": "function"
    },
    {
      "inputs": [
        {
          "internalType": "string",
          "name": "_certificateId",
          "type": "string"
        }
      ],
      "name": "generateCertificate",
      "outputs": [
        {
          "internalType": "uint8",
          "name": "",
          "type": "uint8"
        }
      ],
      "stateMutability": "nonpayable",
      "type": "function"
    }
  ],
  "bytecode": "0x608060405234801561000f575f80fd5b5061088e8061001d5f395ff3fe608060405234801561000f575f80fd5b5060043610610034575f3560e01c8063698ad16114610038578063eedc636814610068575b5f80fd5b610052600480360381019061004d9190610436565b610098565b60405161005f9190610498565b60405180910390f35b610082600480360381019061007d919061053e565b6102ac565b60405161008f9190610498565b60405180910390f35b5f60018251116100dd576040517f08c379a00000000000000000000000000000000000000000000000000000000081526004016100d4906105d6565b60405180910390fd5b5f61010083336040516020016100f49291906106a5565b604051602081830303815290604052805190602001205f1c61011691906106f9565b90505f5b5f803373ffffffffffffffffffffffffffffffffffffffff1673ffffffffffffffffffffffffffffffffffffffff1681526020019081526020015f2080549050811015610225578160ff165f803373ffffffffffffffffffffffffffffffffffffffff1673ffffffffffffffffffffffffffffffffffffffff1681526020019081526020015f2082815481106101b3576101b2610729565b5b905f5260205f2090602091828204019190069054906101000a900460ff1660ff1603610214576040517f08c379a000000000000000000000000000000000000000000000000000000000815260040161020b906107c6565b60405180910390fd5b8061021e90610811565b905061011a565b505f803373ffffffffffffffffffffffffffffffffffffffff1673ffffffffffffffffffffffffffffffffffffffff1681526020019081526020015f2081908060018154018082558091505060019003905f5260205f2090602091828204019190069091909190916101000a81548160ff021916908360ff16021790555080915050919050565b5f602052815f5260405f2081815481106102c4575f80fd5b905f5260205f209060209182820401919006915091509054906101000a900460ff1681565b5f604051905090565b5f80fd5b5f80fd5b5f80fd5b5f80fd5b5f601f19601f8301169050919050565b7f4e487b71000000000000000000000000000000000000000000000000000000005f52604160045260245ffd5b61034882610302565b810181811067ffffffffffffffff8211171561036757610366610312565b5b80604052505050565b5f6103796102e9565b9050610385828261033f565b919050565b5f67ffffffffffffffff8211156103a4576103a3610312565b5b6103ad82610302565b9050602081019050919050565b828183375f83830152505050565b5f6103da6103d58461038a565b610370565b9050828152602081018484840111156103f6576103f56102fe565b5b6104018482856103ba565b509392505050565b5f82601f83011261041d5761041c6102fa565b5b813561042d8482602086016103c8565b91505092915050565b5f6020828403121561044b5761044a6102f2565b5b5f82013567ffffffffffffffff811115610468576104676102f6565b5b61047484828501610409565b91505092915050565b5f60ff82169050919050565b6104928161047d565b82525050565b5f6020820190506104ab5f830184610489565b92915050565b5f73ffffffffffffffffffffffffffffffffffffffff82169050919050565b5f6104da826104b1565b9050919050565b6104ea816104d0565b81146104f4575f80fd5b50565b5f81359050610505816104e1565b92915050565b5f819050919050565b61051d8161050b565b8114610527575f80fd5b50565b5f8135905061053881610514565b92915050565b5f8060408385031215610554576105536102f2565b5b5f610561858286016104f7565b92505060206105728582860161052a565b9150509250929050565b5f82825260208201905092915050565b7f496e76616c6964204944000000000000000000000000000000000000000000005f82015250565b5f6105c0600a8361057c565b91506105cb8261058c565b602082019050919050565b5f6020820190508181035f8301526105ed816105b4565b9050919050565b5f81519050919050565b5f81905092915050565b5f5b8381101561062557808201518184015260208101905061060a565b5f8484015250505050565b5f61063a826105f4565b61064481856105fe565b9350610654818560208601610608565b80840191505092915050565b5f8160601b9050919050565b5f61067682610660565b9050919050565b5f6106878261066c565b9050919050565b61069f61069a826104d0565b61067d565b82525050565b5f6106b08285610630565b91506106bc828461068e565b6014820191508190509392505050565b7f4e487b71000000000000000000000000000000000000000000000000000000005f52601260045260245ffd5b5f6107038261050b565b915061070e8361050b565b92508261071e5761071d6106cc565b5b828206905092915050565b7f4e487b71000000000000000000000000000000000000000000000000000000005f52603260045260245ffd5b7f43657274696669636174652077697468207468697320494420616c72656164795f8201527f2065786973747300000000000000000000000000000000000000000000000000602082015250565b5f6107b060278361057c565b91506107bb82610756565b604082019050919050565b5f6020820190508181035f8301526107dd816107a4565b9050919050565b7f4e487b71000000000000000000000000000000000000000000000000000000005f52601160045260245ffd5b5f61081b8261050b565b91507fffffffffffffffffffffffffffffffffffffffffffffffffffffffffffffffff820361084d5761084c6107e4565b5b60018201905091905056fea2646970667358221220eb9ef1336a056ab37836dda4b35df8dbe2d3f3d60d2ba1f468d3137fb28b7dcf64736f6c63430008140033",
  "immutableReferences": {},
  "source": "// SPDX-License-Identifier: MIT\r\npragma solidity ^0.8.19;\r\n\r\ncontract Certificate {\r\n    mapping(address => uint8[]) public certificateIds;\r\n\r\n    function generateCertificate(string memory _certificateId) \r\n        external returns (uint8) \r\n    {   \r\n        require(bytes(_certificateId).length > 1, \"Invalid ID\");\r\n\r\n        \r\n        uint8 newCertID = uint8(uint256(keccak256(abi.encodePacked(_certificateId, msg.sender))) %256);\r\n\r\n        \r\n        for (uint i = 0; i < certificateIds[msg.sender].length; ++i) {\r\n            if (certificateIds[msg.sender][i] == newCertID) {\r\n                revert(\"Certificate with this ID already exists\");\r\n            }\r\n        }\r\n\r\n        \r\n        certificateIds[msg.sender].push(newCertID);\r\n\r\n        return newCertID;\r\n    }\r\n}\r\n",
  "sourcePath": "D:\\projects\\educhain\\dapp\\contracts\\Certification.sol",
  "compiler": {
    "name": "solc",
    "version": "0.8.20+commit.a1b79de6.Emscripten.clang"
  },
  "schemaVersion": "3.4.16",
  "updatedAt": "2025-02-27T16:25:15.479Z",
  "devdoc": {
    "kind": "dev",
    "methods": {},
    "version": 1
  },
  "userdoc": {
    "kind": "user",
    "methods": {},
    "version": 1
  }
}