{
  "contractName": "NFTMarketplace",
  "abi": [
    {
      "inputs": [],
      "stateMutability": "nonpayable",
      "type": "constructor"
    },
    {
      "inputs": [
        {
          "internalType": "address",
          "name": "sender",
          "type": "address"
        },
        {
          "internalType": "uint256",
          "name": "tokenId",
          "type": "uint256"
        },
        {
          "internalType": "address",
          "name": "owner",
          "type": "address"
        }
      ],
      "name": "ERC721IncorrectOwner",
      "type": "error"
    },
    {
      "inputs": [
        {
          "internalType": "address",
          "name": "operator",
          "type": "address"
        },
        {
          "internalType": "uint256",
          "name": "tokenId",
          "type": "uint256"
        }
      ],
      "name": "ERC721InsufficientApproval",
      "type": "error"
    },
    {
      "inputs": [
        {
          "internalType": "address",
          "name": "approver",
          "type": "address"
        }
      ],
      "name": "ERC721InvalidApprover",
      "type": "error"
    },
    {
      "inputs": [
        {
          "internalType": "address",
          "name": "operator",
          "type": "address"
        }
      ],
      "name": "ERC721InvalidOperator",
      "type": "error"
    },
    {
      "inputs": [
        {
          "internalType": "address",
          "name": "owner",
          "type": "address"
        }
      ],
      "name": "ERC721InvalidOwner",
      "type": "error"
    },
    {
      "inputs": [
        {
          "internalType": "address",
          "name": "receiver",
          "type": "address"
        }
      ],
      "name": "ERC721InvalidReceiver",
      "type": "error"
    },
    {
      "inputs": [
        {
          "internalType": "address",
          "name": "sender",
          "type": "address"
        }
      ],
      "name": "ERC721InvalidSender",
      "type": "error"
    },
    {
      "inputs": [
        {
          "internalType": "uint256",
          "name": "tokenId",
          "type": "uint256"
        }
      ],
      "name": "ERC721NonexistentToken",
      "type": "error"
    },
    {
      "anonymous": false,
      "inputs": [
        {
          "indexed": true,
          "internalType": "address",
          "name": "owner",
          "type": "address"
        },
        {
          "indexed": true,
          "internalType": "address",
          "name": "approved",
          "type": "address"
        },
        {
          "indexed": true,
          "internalType": "uint256",
          "name": "tokenId",
          "type": "uint256"
        }
      ],
      "name": "Approval",
      "type": "event"
    },
    {
      "anonymous": false,
      "inputs": [
        {
          "indexed": true,
          "internalType": "address",
          "name": "owner",
          "type": "address"
        },
        {
          "indexed": true,
          "internalType": "address",
          "name": "operator",
          "type": "address"
        },
        {
          "indexed": false,
          "internalType": "bool",
          "name": "approved",
          "type": "bool"
        }
      ],
      "name": "ApprovalForAll",
      "type": "event"
    },
    {
      "anonymous": false,
      "inputs": [
        {
          "indexed": false,
          "internalType": "uint256",
          "name": "_fromTokenId",
          "type": "uint256"
        },
        {
          "indexed": false,
          "internalType": "uint256",
          "name": "_toTokenId",
          "type": "uint256"
        }
      ],
      "name": "BatchMetadataUpdate",
      "type": "event"
    },
    {
      "anonymous": false,
      "inputs": [
        {
          "indexed": false,
          "internalType": "uint256",
          "name": "_tokenId",
          "type": "uint256"
        }
      ],
      "name": "MetadataUpdate",
      "type": "event"
    },
    {
      "anonymous": false,
      "inputs": [
        {
          "indexed": true,
          "internalType": "uint256",
          "name": "tokenId",
          "type": "uint256"
        },
        {
          "indexed": true,
          "internalType": "address",
          "name": "seller",
          "type": "address"
        },
        {
          "indexed": false,
          "internalType": "uint256",
          "name": "price",
          "type": "uint256"
        }
      ],
      "name": "TokenListedSuccess",
      "type": "event"
    },
    {
      "anonymous": false,
      "inputs": [
        {
          "indexed": true,
          "internalType": "uint256",
          "name": "tokenId",
          "type": "uint256"
        },
        {
          "indexed": true,
          "internalType": "address",
          "name": "buyer",
          "type": "address"
        },
        {
          "indexed": false,
          "internalType": "uint256",
          "name": "price",
          "type": "uint256"
        }
      ],
      "name": "TokenSold",
      "type": "event"
    },
    {
      "anonymous": false,
      "inputs": [
        {
          "indexed": true,
          "internalType": "address",
          "name": "from",
          "type": "address"
        },
        {
          "indexed": true,
          "internalType": "address",
          "name": "to",
          "type": "address"
        },
        {
          "indexed": true,
          "internalType": "uint256",
          "name": "tokenId",
          "type": "uint256"
        }
      ],
      "name": "Transfer",
      "type": "event"
    },
    {
      "inputs": [
        {
          "internalType": "address",
          "name": "to",
          "type": "address"
        },
        {
          "internalType": "uint256",
          "name": "tokenId",
          "type": "uint256"
        }
      ],
      "name": "approve",
      "outputs": [],
      "stateMutability": "nonpayable",
      "type": "function"
    },
    {
      "inputs": [
        {
          "internalType": "address",
          "name": "owner",
          "type": "address"
        }
      ],
      "name": "balanceOf",
      "outputs": [
        {
          "internalType": "uint256",
          "name": "",
          "type": "uint256"
        }
      ],
      "stateMutability": "view",
      "type": "function",
      "constant": true
    },
    {
      "inputs": [
        {
          "internalType": "uint256",
          "name": "tokenId",
          "type": "uint256"
        }
      ],
      "name": "getApproved",
      "outputs": [
        {
          "internalType": "address",
          "name": "",
          "type": "address"
        }
      ],
      "stateMutability": "view",
      "type": "function",
      "constant": true
    },
    {
      "inputs": [
        {
          "internalType": "address",
          "name": "owner",
          "type": "address"
        },
        {
          "internalType": "address",
          "name": "operator",
          "type": "address"
        }
      ],
      "name": "isApprovedForAll",
      "outputs": [
        {
          "internalType": "bool",
          "name": "",
          "type": "bool"
        }
      ],
      "stateMutability": "view",
      "type": "function",
      "constant": true
    },
    {
      "inputs": [],
      "name": "listPrice",
      "outputs": [
        {
          "internalType": "uint256",
          "name": "",
          "type": "uint256"
        }
      ],
      "stateMutability": "view",
      "type": "function",
      "constant": true
    },
    {
      "inputs": [],
      "name": "name",
      "outputs": [
        {
          "internalType": "string",
          "name": "",
          "type": "string"
        }
      ],
      "stateMutability": "view",
      "type": "function",
      "constant": true
    },
    {
      "inputs": [],
      "name": "owner",
      "outputs": [
        {
          "internalType": "address payable",
          "name": "",
          "type": "address"
        }
      ],
      "stateMutability": "view",
      "type": "function",
      "constant": true
    },
    {
      "inputs": [
        {
          "internalType": "uint256",
          "name": "tokenId",
          "type": "uint256"
        }
      ],
      "name": "ownerOf",
      "outputs": [
        {
          "internalType": "address",
          "name": "",
          "type": "address"
        }
      ],
      "stateMutability": "view",
      "type": "function",
      "constant": true
    },
    {
      "inputs": [
        {
          "internalType": "address",
          "name": "from",
          "type": "address"
        },
        {
          "internalType": "address",
          "name": "to",
          "type": "address"
        },
        {
          "internalType": "uint256",
          "name": "tokenId",
          "type": "uint256"
        }
      ],
      "name": "safeTransferFrom",
      "outputs": [],
      "stateMutability": "nonpayable",
      "type": "function"
    },
    {
      "inputs": [
        {
          "internalType": "address",
          "name": "from",
          "type": "address"
        },
        {
          "internalType": "address",
          "name": "to",
          "type": "address"
        },
        {
          "internalType": "uint256",
          "name": "tokenId",
          "type": "uint256"
        },
        {
          "internalType": "bytes",
          "name": "data",
          "type": "bytes"
        }
      ],
      "name": "safeTransferFrom",
      "outputs": [],
      "stateMutability": "nonpayable",
      "type": "function"
    },
    {
      "inputs": [
        {
          "internalType": "address",
          "name": "operator",
          "type": "address"
        },
        {
          "internalType": "bool",
          "name": "approved",
          "type": "bool"
        }
      ],
      "name": "setApprovalForAll",
      "outputs": [],
      "stateMutability": "nonpayable",
      "type": "function"
    },
    {
      "inputs": [
        {
          "internalType": "bytes4",
          "name": "interfaceId",
          "type": "bytes4"
        }
      ],
      "name": "supportsInterface",
      "outputs": [
        {
          "internalType": "bool",
          "name": "",
          "type": "bool"
        }
      ],
      "stateMutability": "view",
      "type": "function",
      "constant": true
    },
    {
      "inputs": [],
      "name": "symbol",
      "outputs": [
        {
          "internalType": "string",
          "name": "",
          "type": "string"
        }
      ],
      "stateMutability": "view",
      "type": "function",
      "constant": true
    },
    {
      "inputs": [
        {
          "internalType": "uint256",
          "name": "tokenId",
          "type": "uint256"
        }
      ],
      "name": "tokenURI",
      "outputs": [
        {
          "internalType": "string",
          "name": "",
          "type": "string"
        }
      ],
      "stateMutability": "view",
      "type": "function",
      "constant": true
    },
    {
      "inputs": [
        {
          "internalType": "address",
          "name": "from",
          "type": "address"
        },
        {
          "internalType": "address",
          "name": "to",
          "type": "address"
        },
        {
          "internalType": "uint256",
          "name": "tokenId",
          "type": "uint256"
        }
      ],
      "name": "transferFrom",
      "outputs": [],
      "stateMutability": "nonpayable",
      "type": "function"
    },
    {
      "inputs": [
        {
          "internalType": "uint256",
          "name": "_listPrice",
          "type": "uint256"
        }
      ],
      "name": "updateListPrice",
      "outputs": [],
      "stateMutability": "nonpayable",
      "type": "function"
    },
    {
      "inputs": [
        {
          "internalType": "string",
          "name": "tokenURI",
          "type": "string"
        },
        {
          "internalType": "uint256",
          "name": "price",
          "type": "uint256"
        }
      ],
      "name": "createToken",
      "outputs": [
        {
          "internalType": "uint256",
          "name": "",
          "type": "uint256"
        }
      ],
      "stateMutability": "payable",
      "type": "function",
      "payable": true
    },
    {
      "inputs": [
        {
          "internalType": "bool",
          "name": "onlyMine",
          "type": "bool"
        }
      ],
      "name": "getNFTs",
      "outputs": [
        {
          "components": [
            {
              "internalType": "uint256",
              "name": "price",
              "type": "uint256"
            },
            {
              "internalType": "bool",
              "name": "currentlyListed",
              "type": "bool"
            }
          ],
          "internalType": "struct NFTMarketplace.ListedToken[]",
          "name": "",
          "type": "tuple[]"
        }
      ],
      "stateMutability": "view",
      "type": "function",
      "constant": true
    },
    {
      "inputs": [
        {
          "internalType": "uint256",
          "name": "tokenId",
          "type": "uint256"
        }
      ],
      "name": "executeSale",
      "outputs": [],
      "stateMutability": "payable",
      "type": "function",
      "payable": true
    }
  ],
  "bytecode": "0x60a0604052662386f26fc100006008553480156200001b575f80fd5b506040518060400160405280600e81526020017f4e46544d61726b6574706c6163650000000000000000000000000000000000008152506040518060400160405280600481526020017f4e46544d00000000000000000000000000000000000000000000000000000000815250815f90816200009891906200034b565b508060019081620000aa91906200034b565b5050503373ffffffffffffffffffffffffffffffffffffffff1660808173ffffffffffffffffffffffffffffffffffffffff16815250506200042f565b5f81519050919050565b7f4e487b71000000000000000000000000000000000000000000000000000000005f52604160045260245ffd5b7f4e487b71000000000000000000000000000000000000000000000000000000005f52602260045260245ffd5b5f60028204905060018216806200016357607f821691505b6020821081036200017957620001786200011e565b5b50919050565b5f819050815f5260205f209050919050565b5f6020601f8301049050919050565b5f82821b905092915050565b5f60088302620001dd7fffffffffffffffffffffffffffffffffffffffffffffffffffffffffffffffff82620001a0565b620001e98683620001a0565b95508019841693508086168417925050509392505050565b5f819050919050565b5f819050919050565b5f620002336200022d620002278462000201565b6200020a565b62000201565b9050919050565b5f819050919050565b6200024e8362000213565b620002666200025d826200023a565b848454620001ac565b825550505050565b5f90565b6200027c6200026e565b6200028981848462000243565b505050565b5b81811015620002b057620002a45f8262000272565b6001810190506200028f565b5050565b601f821115620002ff57620002c9816200017f565b620002d48462000191565b81016020851015620002e4578190505b620002fc620002f38562000191565b8301826200028e565b50505b505050565b5f82821c905092915050565b5f620003215f198460080262000304565b1980831691505092915050565b5f6200033b838362000310565b9150826002028217905092915050565b6200035682620000e7565b67ffffffffffffffff811115620003725762000371620000f1565b5b6200037e82546200014b565b6200038b828285620002b4565b5f60209050601f831160018114620003c1575f8415620003ac578287015190505b620003b885826200032e565b86555062000427565b601f198416620003d1866200017f565b5f5b82811015620003fa57848901518255600182019150602085019450602081019050620003d3565b868310156200041a578489015162000416601f89168262000310565b8355505b6001600288020188555050505b505050505050565b608051613088620004565f395f818161095c01528181610cee0152610e3c01526130885ff3fe608060405260043610610113575f3560e01c806372b3b6201161009f578063a22cb46511610063578063a22cb465146103af578063b88d4fde146103d7578063c322579c146103ff578063c87b56dd14610427578063e985e9c51461046357610113565b806372b3b620146102d35780638da5cb5b1461030357806395d89b411461032d5780639a53c526146103575780639b1225c41461039357610113565b806323b872dd116100e657806323b872dd146101e157806342842e0e146102095780636352211e146102315780636eb588d91461026d57806370a082311461029757610113565b806301ffc9a71461011757806306fdde0314610153578063081812fc1461017d578063095ea7b3146101b9575b5f80fd5b348015610122575f80fd5b5061013d60048036038101906101389190612154565b61049f565b60405161014a9190612199565b60405180910390f35b34801561015e575f80fd5b506101676104ff565b604051610174919061223c565b60405180910390f35b348015610188575f80fd5b506101a3600480360381019061019e919061228f565b61058e565b6040516101b091906122f9565b60405180910390f35b3480156101c4575f80fd5b506101df60048036038101906101da919061233c565b6105a9565b005b3480156101ec575f80fd5b506102076004803603810190610202919061237a565b6105bf565b005b348015610214575f80fd5b5061022f600480360381019061022a919061237a565b6106be565b005b34801561023c575f80fd5b506102576004803603810190610252919061228f565b6106dd565b60405161026491906122f9565b60405180910390f35b348015610278575f80fd5b506102816106ee565b60405161028e91906123d9565b60405180910390f35b3480156102a2575f80fd5b506102bd60048036038101906102b891906123f2565b6106f4565b6040516102ca91906123d9565b60405180910390f35b6102ed60048036038101906102e8919061247e565b6107aa565b6040516102fa91906123d9565b60405180910390f35b34801561030e575f80fd5b5061031761095a565b60405161032491906124fb565b60405180910390f35b348015610338575f80fd5b5061034161097e565b60405161034e919061223c565b60405180910390f35b348015610362575f80fd5b5061037d6004803603810190610378919061253e565b610a0e565b60405161038a919061265c565b60405180910390f35b6103ad60048036038101906103a8919061228f565b610c19565b005b3480156103ba575f80fd5b506103d560048036038101906103d0919061267c565b610dff565b005b3480156103e2575f80fd5b506103fd60048036038101906103f891906127e2565b610e15565b005b34801561040a575f80fd5b506104256004803603810190610420919061228f565b610e3a565b005b348015610432575f80fd5b5061044d6004803603810190610448919061228f565b610ed2565b60405161045a919061223c565b60405180910390f35b34801561046e575f80fd5b5061048960048036038101906104849190612862565b610fdd565b6040516104969190612199565b60405180910390f35b5f634906490660e01b7bffffffffffffffffffffffffffffffffffffffffffffffffffffffff1916827bffffffffffffffffffffffffffffffffffffffffffffffffffffffff191614806104f857506104f78261106b565b5b9050919050565b60605f805461050d906128cd565b80601f0160208091040260200160405190810160405280929190818152602001828054610539906128cd565b80156105845780601f1061055b57610100808354040283529160200191610584565b820191905f5260205f20905b81548152906001019060200180831161056757829003601f168201915b5050505050905090565b5f6105988261114c565b506105a2826111d2565b9050919050565b6105bb82826105b661120b565b611212565b5050565b5f73ffffffffffffffffffffffffffffffffffffffff168273ffffffffffffffffffffffffffffffffffffffff160361062f575f6040517f64a0ae9200000000000000000000000000000000000000000000000000000000815260040161062691906122f9565b60405180910390fd5b5f610642838361063d61120b565b611224565b90508373ffffffffffffffffffffffffffffffffffffffff168173ffffffffffffffffffffffffffffffffffffffff16146106b8578382826040517f64283d7b0000000000000000000000000000000000000000000000000000000081526004016106af939291906128fd565b60405180910390fd5b50505050565b6106d883838360405180602001604052805f815250610e15565b505050565b5f6106e78261114c565b9050919050565b60085481565b5f8073ffffffffffffffffffffffffffffffffffffffff168273ffffffffffffffffffffffffffffffffffffffff1603610765575f6040517f89c62b6400000000000000000000000000000000000000000000000000000000815260040161075c91906122f9565b60405180910390fd5b60035f8373ffffffffffffffffffffffffffffffffffffffff1673ffffffffffffffffffffffffffffffffffffffff1681526020019081526020015f20549050919050565b5f6008548210156107f0576040517f08c379a00000000000000000000000000000000000000000000000000000000081526004016107e7906129a2565b60405180910390fd5b6008543414610834576040517f08c379a000000000000000000000000000000000000000000000000000000000815260040161082b90612a0a565b60405180910390fd5b5f61083f600761142f565b905061084b600761143b565b610855338261144f565b6108a28186868080601f0160208091040260200160405190810160405280939291908181526020018383808284375f81840152601f19601f8201169050808301925050505050505061146c565b60405180604001604052808481526020016001151581525060095f8381526020019081526020015f205f820151815f01556020820151816001015f6101000a81548160ff0219169083151502179055509050506109003330836114c6565b3373ffffffffffffffffffffffffffffffffffffffff16817ffab8e48de0bee6ffd9a8aa3f73921730389df7e077f3176ef86a12bf1990b5ff8560405161094791906123d9565b60405180910390a3809150509392505050565b7f000000000000000000000000000000000000000000000000000000000000000081565b60606001805461098d906128cd565b80601f01602080910402602001604051908101604052809291908181526020018280546109b9906128cd565b8015610a045780601f106109db57610100808354040283529160200191610a04565b820191905f5260205f20905b8154815290600101906020018083116109e757829003601f168201915b5050505050905090565b60605f610a1b600761142f565b90505f805f600190505b838111610abc5760095f8281526020019081526020015f206001015f9054906101000a900460ff168015610a955750851580610a9457503373ffffffffffffffffffffffffffffffffffffffff16610a7c826106dd565b73ffffffffffffffffffffffffffffffffffffffff16145b5b15610aa9578280610aa590612a55565b9350505b8080610ab490612a55565b915050610a25565b505f8267ffffffffffffffff811115610ad857610ad76126be565b5b604051908082528060200260200182016040528015610b1157816020015b610afe6120d4565b815260200190600190039081610af65790505b5090505f600190505b848111610c0c5760095f8281526020019081526020015f206001015f9054906101000a900460ff168015610b8a5750861580610b8957503373ffffffffffffffffffffffffffffffffffffffff16610b71826106dd565b73ffffffffffffffffffffffffffffffffffffffff16145b5b15610bf95760095f8281526020019081526020015f206040518060400160405290815f8201548152602001600182015f9054906101000a900460ff161515151581525050828480610bda90612a55565b955081518110610bed57610bec612a9c565b5b60200260200101819052505b8080610c0490612a55565b915050610b1a565b5080945050505050919050565b5f60095f8381526020019081526020015f2090505f815f01549050803414610c76576040517f08c379a0000000000000000000000000000000000000000000000000000000008152600401610c6d90612b13565b60405180910390fd5b816001015f9054906101000a900460ff16610cc6576040517f08c379a0000000000000000000000000000000000000000000000000000000008152600401610cbd90612b7b565b60405180910390fd5b5f826001015f6101000a81548160ff021916908315150217905550610cec3033856114c6565b7f000000000000000000000000000000000000000000000000000000000000000073ffffffffffffffffffffffffffffffffffffffff166108fc60085490811502906040515f60405180830381858888f19350505050158015610d51573d5f803e3d5ffd5b50610d5b836106dd565b73ffffffffffffffffffffffffffffffffffffffff166108fc60085483610d829190612b99565b90811502906040515f60405180830381858888f19350505050158015610daa573d5f803e3d5ffd5b503373ffffffffffffffffffffffffffffffffffffffff16837f5de13defa3534de0567d51e62e997235f1c1e8ddc82289aeaca94516a358d53983604051610df291906123d9565b60405180910390a3505050565b610e11610e0a61120b565b838361162e565b5050565b610e208484846105bf565b610e34610e2b61120b565b85858585611797565b50505050565b7f000000000000000000000000000000000000000000000000000000000000000073ffffffffffffffffffffffffffffffffffffffff163373ffffffffffffffffffffffffffffffffffffffff1614610ec8576040517f08c379a0000000000000000000000000000000000000000000000000000000008152600401610ebf90612c3c565b60405180910390fd5b8060088190555050565b6060610edd8261114c565b505f60065f8481526020019081526020015f208054610efb906128cd565b80601f0160208091040260200160405190810160405280929190818152602001828054610f27906128cd565b8015610f725780601f10610f4957610100808354040283529160200191610f72565b820191905f5260205f20905b815481529060010190602001808311610f5557829003601f168201915b505050505090505f610f82611943565b90505f815103610f96578192505050610fd8565b5f82511115610fca578082604051602001610fb2929190612c94565b60405160208183030381529060405292505050610fd8565b610fd384611959565b925050505b919050565b5f60055f8473ffffffffffffffffffffffffffffffffffffffff1673ffffffffffffffffffffffffffffffffffffffff1681526020019081526020015f205f8373ffffffffffffffffffffffffffffffffffffffff1673ffffffffffffffffffffffffffffffffffffffff1681526020019081526020015f205f9054906101000a900460ff16905092915050565b5f7f80ac58cd000000000000000000000000000000000000000000000000000000007bffffffffffffffffffffffffffffffffffffffffffffffffffffffff1916827bffffffffffffffffffffffffffffffffffffffffffffffffffffffff1916148061113557507f5b5e139f000000000000000000000000000000000000000000000000000000007bffffffffffffffffffffffffffffffffffffffffffffffffffffffff1916827bffffffffffffffffffffffffffffffffffffffffffffffffffffffff1916145b806111455750611144826119bf565b5b9050919050565b5f8061115783611a28565b90505f73ffffffffffffffffffffffffffffffffffffffff168173ffffffffffffffffffffffffffffffffffffffff16036111c957826040517f7e2732890000000000000000000000000000000000000000000000000000000081526004016111c091906123d9565b60405180910390fd5b80915050919050565b5f60045f8381526020019081526020015f205f9054906101000a900473ffffffffffffffffffffffffffffffffffffffff169050919050565b5f33905090565b61121f8383836001611a61565b505050565b5f8061122f84611a28565b90505f73ffffffffffffffffffffffffffffffffffffffff168373ffffffffffffffffffffffffffffffffffffffff16146112705761126f818486611c20565b5b5f73ffffffffffffffffffffffffffffffffffffffff168173ffffffffffffffffffffffffffffffffffffffff16146112fb576112af5f855f80611a61565b600160035f8373ffffffffffffffffffffffffffffffffffffffff1673ffffffffffffffffffffffffffffffffffffffff1681526020019081526020015f205f82825403925050819055505b5f73ffffffffffffffffffffffffffffffffffffffff168573ffffffffffffffffffffffffffffffffffffffff161461137a57600160035f8773ffffffffffffffffffffffffffffffffffffffff1673ffffffffffffffffffffffffffffffffffffffff1681526020019081526020015f205f82825401925050819055505b8460025f8681526020019081526020015f205f6101000a81548173ffffffffffffffffffffffffffffffffffffffff021916908373ffffffffffffffffffffffffffffffffffffffff160217905550838573ffffffffffffffffffffffffffffffffffffffff168273ffffffffffffffffffffffffffffffffffffffff167fddf252ad1be2c89b69c2b068fc378daa952ba7f163c4a11628f55a4df523b3ef60405160405180910390a4809150509392505050565b5f815f01549050919050565b6001815f015f828254019250508190555050565b611468828260405180602001604052805f815250611ce3565b5050565b8060065f8481526020019081526020015f20908161148a9190612e54565b507ff8e1a15aba9398e019f0b49df1a4fde98ee17ae345cb5f6b5e2c27f5033e8ce7826040516114ba91906123d9565b60405180910390a15050565b5f73ffffffffffffffffffffffffffffffffffffffff168273ffffffffffffffffffffffffffffffffffffffff1603611536575f6040517f64a0ae9200000000000000000000000000000000000000000000000000000000815260040161152d91906122f9565b60405180910390fd5b5f61154283835f611224565b90505f73ffffffffffffffffffffffffffffffffffffffff168173ffffffffffffffffffffffffffffffffffffffff16036115b457816040517f7e2732890000000000000000000000000000000000000000000000000000000081526004016115ab91906123d9565b60405180910390fd5b8373ffffffffffffffffffffffffffffffffffffffff168173ffffffffffffffffffffffffffffffffffffffff1614611628578382826040517f64283d7b00000000000000000000000000000000000000000000000000000000815260040161161f939291906128fd565b60405180910390fd5b50505050565b5f73ffffffffffffffffffffffffffffffffffffffff168273ffffffffffffffffffffffffffffffffffffffff160361169e57816040517f5b08ba1800000000000000000000000000000000000000000000000000000000815260040161169591906122f9565b60405180910390fd5b8060055f8573ffffffffffffffffffffffffffffffffffffffff1673ffffffffffffffffffffffffffffffffffffffff1681526020019081526020015f205f8473ffffffffffffffffffffffffffffffffffffffff1673ffffffffffffffffffffffffffffffffffffffff1681526020019081526020015f205f6101000a81548160ff0219169083151502179055508173ffffffffffffffffffffffffffffffffffffffff168373ffffffffffffffffffffffffffffffffffffffff167f17307eab39ab6107e8899845ad3d59bd9653f200f220920489ca2b5937696c318360405161178a9190612199565b60405180910390a3505050565b5f8373ffffffffffffffffffffffffffffffffffffffff163b111561193c578273ffffffffffffffffffffffffffffffffffffffff1663150b7a02868685856040518563ffffffff1660e01b81526004016117f59493929190612f75565b6020604051808303815f875af192505050801561183057506040513d601f19601f8201168201806040525081019061182d9190612fd3565b60015b6118b1573d805f811461185e576040519150601f19603f3d011682016040523d82523d5f602084013e611863565b606091505b505f8151036118a957836040517f64a0ae920000000000000000000000000000000000000000000000000000000081526004016118a091906122f9565b60405180910390fd5b805181602001fd5b63150b7a0260e01b7bffffffffffffffffffffffffffffffffffffffffffffffffffffffff1916817bffffffffffffffffffffffffffffffffffffffffffffffffffffffff19161461193a57836040517f64a0ae9200000000000000000000000000000000000000000000000000000000815260040161193191906122f9565b60405180910390fd5b505b5050505050565b606060405180602001604052805f815250905090565b60606119648261114c565b505f61196e611943565b90505f81511161198c5760405180602001604052805f8152506119b7565b8061199684611d06565b6040516020016119a7929190612c94565b6040516020818303038152906040525b915050919050565b5f7f01ffc9a7000000000000000000000000000000000000000000000000000000007bffffffffffffffffffffffffffffffffffffffffffffffffffffffff1916827bffffffffffffffffffffffffffffffffffffffffffffffffffffffff1916149050919050565b5f60025f8381526020019081526020015f205f9054906101000a900473ffffffffffffffffffffffffffffffffffffffff169050919050565b8080611a9957505f73ffffffffffffffffffffffffffffffffffffffff168273ffffffffffffffffffffffffffffffffffffffff1614155b15611bcb575f611aa88461114c565b90505f73ffffffffffffffffffffffffffffffffffffffff168373ffffffffffffffffffffffffffffffffffffffff1614158015611b1257508273ffffffffffffffffffffffffffffffffffffffff168173ffffffffffffffffffffffffffffffffffffffff1614155b8015611b255750611b238184610fdd565b155b15611b6757826040517fa9fbf51f000000000000000000000000000000000000000000000000000000008152600401611b5e91906122f9565b60405180910390fd5b8115611bc957838573ffffffffffffffffffffffffffffffffffffffff168273ffffffffffffffffffffffffffffffffffffffff167f8c5be1e5ebec7d5bd14f71427d1e84f3dd0314c0f7b2291e5b200ac8c7c3b92560405160405180910390a45b505b8360045f8581526020019081526020015f205f6101000a81548173ffffffffffffffffffffffffffffffffffffffff021916908373ffffffffffffffffffffffffffffffffffffffff16021790555050505050565b611c2b838383611dd0565b611cde575f73ffffffffffffffffffffffffffffffffffffffff168373ffffffffffffffffffffffffffffffffffffffff1603611c9f57806040517f7e273289000000000000000000000000000000000000000000000000000000008152600401611c9691906123d9565b60405180910390fd5b81816040517f177e802f000000000000000000000000000000000000000000000000000000008152600401611cd5929190612ffe565b60405180910390fd5b505050565b611ced8383611e90565b611d01611cf861120b565b5f858585611797565b505050565b60605f6001611d1484611f83565b0190505f8167ffffffffffffffff811115611d3257611d316126be565b5b6040519080825280601f01601f191660200182016040528015611d645781602001600182028036833780820191505090505b5090505f82602001820190505b600115611dc5578080600190039150507f3031323334353637383961626364656600000000000000000000000000000000600a86061a8153600a8581611dba57611db9613025565b5b0494505f8503611d71575b819350505050919050565b5f8073ffffffffffffffffffffffffffffffffffffffff168373ffffffffffffffffffffffffffffffffffffffff1614158015611e8757508273ffffffffffffffffffffffffffffffffffffffff168473ffffffffffffffffffffffffffffffffffffffff161480611e485750611e478484610fdd565b5b80611e8657508273ffffffffffffffffffffffffffffffffffffffff16611e6e836111d2565b73ffffffffffffffffffffffffffffffffffffffff16145b5b90509392505050565b5f73ffffffffffffffffffffffffffffffffffffffff168273ffffffffffffffffffffffffffffffffffffffff1603611f00575f6040517f64a0ae92000000000000000000000000000000000000000000000000000000008152600401611ef791906122f9565b60405180910390fd5b5f611f0c83835f611224565b90505f73ffffffffffffffffffffffffffffffffffffffff168173ffffffffffffffffffffffffffffffffffffffff1614611f7e575f6040517f73c6ac6e000000000000000000000000000000000000000000000000000000008152600401611f7591906122f9565b60405180910390fd5b505050565b5f805f90507a184f03e93ff9f4daa797ed6e38ed64bf6a1f0100000000000000008310611fdf577a184f03e93ff9f4daa797ed6e38ed64bf6a1f0100000000000000008381611fd557611fd4613025565b5b0492506040810190505b6d04ee2d6d415b85acef8100000000831061201c576d04ee2d6d415b85acef8100000000838161201257612011613025565b5b0492506020810190505b662386f26fc10000831061204b57662386f26fc10000838161204157612040613025565b5b0492506010810190505b6305f5e1008310612074576305f5e100838161206a57612069613025565b5b0492506008810190505b612710831061209957612710838161208f5761208e613025565b5b0492506004810190505b606483106120bc57606483816120b2576120b1613025565b5b0492506002810190505b600a83106120cb576001810190505b80915050919050565b60405180604001604052805f81526020015f151581525090565b5f604051905090565b5f80fd5b5f80fd5b5f7fffffffff0000000000000000000000000000000000000000000000000000000082169050919050565b612133816120ff565b811461213d575f80fd5b50565b5f8135905061214e8161212a565b92915050565b5f60208284031215612169576121686120f7565b5b5f61217684828501612140565b91505092915050565b5f8115159050919050565b6121938161217f565b82525050565b5f6020820190506121ac5f83018461218a565b92915050565b5f81519050919050565b5f82825260208201905092915050565b5f5b838110156121e95780820151818401526020810190506121ce565b5f8484015250505050565b5f601f19601f8301169050919050565b5f61220e826121b2565b61221881856121bc565b93506122288185602086016121cc565b612231816121f4565b840191505092915050565b5f6020820190508181035f8301526122548184612204565b905092915050565b5f819050919050565b61226e8161225c565b8114612278575f80fd5b50565b5f8135905061228981612265565b92915050565b5f602082840312156122a4576122a36120f7565b5b5f6122b18482850161227b565b91505092915050565b5f73ffffffffffffffffffffffffffffffffffffffff82169050919050565b5f6122e3826122ba565b9050919050565b6122f3816122d9565b82525050565b5f60208201905061230c5f8301846122ea565b92915050565b61231b816122d9565b8114612325575f80fd5b50565b5f8135905061233681612312565b92915050565b5f8060408385031215612352576123516120f7565b5b5f61235f85828601612328565b92505060206123708582860161227b565b9150509250929050565b5f805f60608486031215612391576123906120f7565b5b5f61239e86828701612328565b93505060206123af86828701612328565b92505060406123c08682870161227b565b9150509250925092565b6123d38161225c565b82525050565b5f6020820190506123ec5f8301846123ca565b92915050565b5f60208284031215612407576124066120f7565b5b5f61241484828501612328565b91505092915050565b5f80fd5b5f80fd5b5f80fd5b5f8083601f84011261243e5761243d61241d565b5b8235905067ffffffffffffffff81111561245b5761245a612421565b5b60208301915083600182028301111561247757612476612425565b5b9250929050565b5f805f60408486031215612495576124946120f7565b5b5f84013567ffffffffffffffff8111156124b2576124b16120fb565b5b6124be86828701612429565b935093505060206124d18682870161227b565b9150509250925092565b5f6124e5826122ba565b9050919050565b6124f5816124db565b82525050565b5f60208201905061250e5f8301846124ec565b92915050565b61251d8161217f565b8114612527575f80fd5b50565b5f8135905061253881612514565b92915050565b5f60208284031215612553576125526120f7565b5b5f6125608482850161252a565b91505092915050565b5f81519050919050565b5f82825260208201905092915050565b5f819050602082019050919050565b61259b8161225c565b82525050565b6125aa8161217f565b82525050565b604082015f8201516125c45f850182612592565b5060208201516125d760208501826125a1565b50505050565b5f6125e883836125b0565b60408301905092915050565b5f602082019050919050565b5f61260a82612569565b6126148185612573565b935061261f83612583565b805f5b8381101561264f57815161263688826125dd565b9750612641836125f4565b925050600181019050612622565b5085935050505092915050565b5f6020820190508181035f8301526126748184612600565b905092915050565b5f8060408385031215612692576126916120f7565b5b5f61269f85828601612328565b92505060206126b08582860161252a565b9150509250929050565b5f80fd5b7f4e487b71000000000000000000000000000000000000000000000000000000005f52604160045260245ffd5b6126f4826121f4565b810181811067ffffffffffffffff82111715612713576127126126be565b5b80604052505050565b5f6127256120ee565b905061273182826126eb565b919050565b5f67ffffffffffffffff8211156127505761274f6126be565b5b612759826121f4565b9050602081019050919050565b828183375f83830152505050565b5f61278661278184612736565b61271c565b9050828152602081018484840111156127a2576127a16126ba565b5b6127ad848285612766565b509392505050565b5f82601f8301126127c9576127c861241d565b5b81356127d9848260208601612774565b91505092915050565b5f805f80608085870312156127fa576127f96120f7565b5b5f61280787828801612328565b945050602061281887828801612328565b93505060406128298782880161227b565b925050606085013567ffffffffffffffff81111561284a576128496120fb565b5b612856878288016127b5565b91505092959194509250565b5f8060408385031215612878576128776120f7565b5b5f61288585828601612328565b925050602061289685828601612328565b9150509250929050565b7f4e487b71000000000000000000000000000000000000000000000000000000005f52602260045260245ffd5b5f60028204905060018216806128e457607f821691505b6020821081036128f7576128f66128a0565b5b50919050565b5f6060820190506129105f8301866122ea565b61291d60208301856123ca565b61292a60408301846122ea565b949350505050565b7f5072696365206d757374206265206174206c6561737420746865206c697374695f8201527f6e67207072696365000000000000000000000000000000000000000000000000602082015250565b5f61298c6028836121bc565b915061299782612932565b604082019050919050565b5f6020820190508181035f8301526129b981612980565b9050919050565b7f496e636f7272656374206c697374696e672070726963650000000000000000005f82015250565b5f6129f46017836121bc565b91506129ff826129c0565b602082019050919050565b5f6020820190508181035f830152612a21816129e8565b9050919050565b7f4e487b71000000000000000000000000000000000000000000000000000000005f52601160045260245ffd5b5f612a5f8261225c565b91507fffffffffffffffffffffffffffffffffffffffffffffffffffffffffffffffff8203612a9157612a90612a28565b5b600182019050919050565b7f4e487b71000000000000000000000000000000000000000000000000000000005f52603260045260245ffd5b7f496e636f72726563742070726963652073656e740000000000000000000000005f82015250565b5f612afd6014836121bc565b9150612b0882612ac9565b602082019050919050565b5f6020820190508181035f830152612b2a81612af1565b9050919050565b7f546f6b656e206973206e6f742063757272656e746c79206c69737465640000005f82015250565b5f612b65601d836121bc565b9150612b7082612b31565b602082019050919050565b5f6020820190508181035f830152612b9281612b59565b9050919050565b5f612ba38261225c565b9150612bae8361225c565b9250828203905081811115612bc657612bc5612a28565b5b92915050565b7f4f6e6c7920746865206f776e65722063616e2075706461746520746865206c695f8201527f7374207072696365000000000000000000000000000000000000000000000000602082015250565b5f612c266028836121bc565b9150612c3182612bcc565b604082019050919050565b5f6020820190508181035f830152612c5381612c1a565b9050919050565b5f81905092915050565b5f612c6e826121b2565b612c788185612c5a565b9350612c888185602086016121cc565b80840191505092915050565b5f612c9f8285612c64565b9150612cab8284612c64565b91508190509392505050565b5f819050815f5260205f209050919050565b5f6020601f8301049050919050565b5f82821b905092915050565b5f60088302612d137fffffffffffffffffffffffffffffffffffffffffffffffffffffffffffffffff82612cd8565b612d1d8683612cd8565b95508019841693508086168417925050509392505050565b5f819050919050565b5f612d58612d53612d4e8461225c565b612d35565b61225c565b9050919050565b5f819050919050565b612d7183612d3e565b612d85612d7d82612d5f565b848454612ce4565b825550505050565b5f90565b612d99612d8d565b612da4818484612d68565b505050565b5b81811015612dc757612dbc5f82612d91565b600181019050612daa565b5050565b601f821115612e0c57612ddd81612cb7565b612de684612cc9565b81016020851015612df5578190505b612e09612e0185612cc9565b830182612da9565b50505b505050565b5f82821c905092915050565b5f612e2c5f1984600802612e11565b1980831691505092915050565b5f612e448383612e1d565b9150826002028217905092915050565b612e5d826121b2565b67ffffffffffffffff811115612e7657612e756126be565b5b612e8082546128cd565b612e8b828285612dcb565b5f60209050601f831160018114612ebc575f8415612eaa578287015190505b612eb48582612e39565b865550612f1b565b601f198416612eca86612cb7565b5f5b82811015612ef157848901518255600182019150602085019450602081019050612ecc565b86831015612f0e5784890151612f0a601f891682612e1d565b8355505b6001600288020188555050505b505050505050565b5f81519050919050565b5f82825260208201905092915050565b5f612f4782612f23565b612f518185612f2d565b9350612f618185602086016121cc565b612f6a816121f4565b840191505092915050565b5f608082019050612f885f8301876122ea565b612f9560208301866122ea565b612fa260408301856123ca565b8181036060830152612fb48184612f3d565b905095945050505050565b5f81519050612fcd8161212a565b92915050565b5f60208284031215612fe857612fe76120f7565b5b5f612ff584828501612fbf565b91505092915050565b5f6040820190506130115f8301856122ea565b61301e60208301846123ca565b9392505050565b7f4e487b71000000000000000000000000000000000000000000000000000000005f52601260045260245ffdfea264697066735822122054ce6e761adb34a68e09d8e430d33316e2ef6027248277a1ef381cc74c382d0964736f6c63430008140033",
  "immutableReferences": {
    "6586": [
      {
        "length": 32,
        "start": 2396
      },
      {
        "length": 32,
        "start": 3310
      },
      {
        "length": 32,
        "start": 3644
      }
    ]
  },
  "source": "// SPDX-License-Identifier: MIT\r\npragma solidity ^0.8.19;\r\n\r\nimport \"@openzeppelin/contracts/token/ERC721/extensions/ERC721URIStorage.sol\";\r\nimport \"@openzeppelin/contracts/utils/Counters.sol\";\r\n\r\ncontract NFTMarketplace is ERC721URIStorage {\r\n    using Counters for Counters.Counter;\r\n    address payable public immutable owner;\r\n\r\n    Counters.Counter private _tokenIds;\r\n\r\n    uint256 public listPrice = 0.01 ether;\r\n\r\n    struct ListedToken {\r\n        uint256 price;\r\n        bool currentlyListed;\r\n    }\r\n\r\n    mapping(uint256 => ListedToken) private idToListedToken;\r\n\r\n    event TokenListedSuccess(\r\n        uint256 indexed tokenId,\r\n        address indexed seller,\r\n        uint256 price\r\n    );\r\n\r\n    event TokenSold(\r\n        uint256 indexed tokenId,\r\n        address indexed buyer,\r\n        uint256 price\r\n    );\r\n\r\n    constructor() ERC721(\"NFTMarketplace\", \"NFTM\") {\r\n        owner = payable(msg.sender);\r\n    }\r\n\r\n    function updateListPrice(uint256 _listPrice) external {\r\n        require(msg.sender == owner, \"Only the owner can update the list price\");\r\n        listPrice = _listPrice;\r\n    }\r\n\r\n    function createToken(string calldata tokenURI, uint256 price) external payable returns (uint256) {\r\n        require(price >= listPrice, \"Price must be at least the listing price\");\r\n        require(msg.value == listPrice, \"Incorrect listing price\");\r\n\r\n        uint256 newItemId = _tokenIds.current();\r\n        _tokenIds.increment();\r\n        _safeMint(msg.sender, newItemId);\r\n        _setTokenURI(newItemId, tokenURI);\r\n\r\n        idToListedToken[newItemId] = ListedToken({\r\n            price: price,\r\n            currentlyListed: true\r\n        });\r\n\r\n        _transfer(msg.sender, address(this), newItemId);\r\n        emit TokenListedSuccess(newItemId, msg.sender, price);\r\n\r\n        return newItemId;\r\n    }\r\n\r\n    function getNFTs(bool onlyMine) external view returns (ListedToken[] memory) {\r\n        uint256 totalItemCount = _tokenIds.current();\r\n        uint256 itemCount = 0;\r\n        uint256 index = 0;\r\n\r\n        for (uint256 i = 1; i <= totalItemCount; i++) {\r\n            if (idToListedToken[i].currentlyListed && (!onlyMine || ownerOf(i) == msg.sender)) {\r\n                itemCount++;\r\n            }\r\n        }\r\n\r\n        ListedToken[] memory items = new ListedToken[](itemCount);\r\n\r\n        for (uint256 i = 1; i <= totalItemCount; i++) {\r\n            if (idToListedToken[i].currentlyListed && (!onlyMine || ownerOf(i) == msg.sender)) {\r\n                items[index++] = idToListedToken[i];\r\n            }\r\n        }\r\n        return items;\r\n    }\r\n\r\n    function executeSale(uint256 tokenId) external payable {\r\n        ListedToken storage listedToken = idToListedToken[tokenId];\r\n        uint256 price = listedToken.price;\r\n\r\n        require(msg.value == price, \"Incorrect price sent\");\r\n        require(listedToken.currentlyListed, \"Token is not currently listed\");\r\n\r\n        listedToken.currentlyListed = false;\r\n\r\n        _transfer(address(this), msg.sender, tokenId);\r\n        payable(owner).transfer(listPrice);\r\n        payable(ownerOf(tokenId)).transfer(price - listPrice);\r\n\r\n        emit TokenSold(tokenId, msg.sender, price);\r\n    }\r\n}\r\n",
  "sourcePath": "D:\\projects\\educhain\\dapp\\contracts\\NFT.sol",
  "compiler": {
    "name": "solc",
    "version": "0.8.20+commit.a1b79de6.Emscripten.clang"
  },
  "schemaVersion": "3.4.16",
  "updatedAt": "2025-02-28T10:37:53.015Z",
  "networkType": "ethereum",
  "devdoc": {
    "errors": {
      "ERC721IncorrectOwner(address,uint256,address)": [
        {
          "details": "Indicates an error related to the ownership over a particular token. Used in transfers.",
          "params": {
            "owner": "Address of the current owner of a token.",
            "sender": "Address whose tokens are being transferred.",
            "tokenId": "Identifier number of a token."
          }
        }
      ],
      "ERC721InsufficientApproval(address,uint256)": [
        {
          "details": "Indicates a failure with the `operator`s approval. Used in transfers.",
          "params": {
            "operator": "Address that may be allowed to operate on tokens without being their owner.",
            "tokenId": "Identifier number of a token."
          }
        }
      ],
      "ERC721InvalidApprover(address)": [
        {
          "details": "Indicates a failure with the `approver` of a token to be approved. Used in approvals.",
          "params": {
            "approver": "Address initiating an approval operation."
          }
        }
      ],
      "ERC721InvalidOperator(address)": [
        {
          "details": "Indicates a failure with the `operator` to be approved. Used in approvals.",
          "params": {
            "operator": "Address that may be allowed to operate on tokens without being their owner."
          }
        }
      ],
      "ERC721InvalidOwner(address)": [
        {
          "details": "Indicates that an address can't be an owner. For example, `address(0)` is a forbidden owner in ERC-20. Used in balance queries.",
          "params": {
            "owner": "Address of the current owner of a token."
          }
        }
      ],
      "ERC721InvalidReceiver(address)": [
        {
          "details": "Indicates a failure with the token `receiver`. Used in transfers.",
          "params": {
            "receiver": "Address to which tokens are being transferred."
          }
        }
      ],
      "ERC721InvalidSender(address)": [
        {
          "details": "Indicates a failure with the token `sender`. Used in transfers.",
          "params": {
            "sender": "Address whose tokens are being transferred."
          }
        }
      ],
      "ERC721NonexistentToken(uint256)": [
        {
          "details": "Indicates a `tokenId` whose `owner` is the zero address.",
          "params": {
            "tokenId": "Identifier number of a token."
          }
        }
      ]
    },
    "events": {
      "Approval(address,address,uint256)": {
        "details": "Emitted when `owner` enables `approved` to manage the `tokenId` token."
      },
      "ApprovalForAll(address,address,bool)": {
        "details": "Emitted when `owner` enables or disables (`approved`) `operator` to manage all of its assets."
      },
      "BatchMetadataUpdate(uint256,uint256)": {
        "details": "This event emits when the metadata of a range of tokens is changed. So that the third-party platforms such as NFT market could timely update the images and related attributes of the NFTs."
      },
      "MetadataUpdate(uint256)": {
        "details": "This event emits when the metadata of a token is changed. So that the third-party platforms such as NFT market could timely update the images and related attributes of the NFT."
      },
      "Transfer(address,address,uint256)": {
        "details": "Emitted when `tokenId` token is transferred from `from` to `to`."
      }
    },
    "kind": "dev",
    "methods": {
      "approve(address,uint256)": {
        "details": "See {IERC721-approve}."
      },
      "balanceOf(address)": {
        "details": "See {IERC721-balanceOf}."
      },
      "getApproved(uint256)": {
        "details": "See {IERC721-getApproved}."
      },
      "isApprovedForAll(address,address)": {
        "details": "See {IERC721-isApprovedForAll}."
      },
      "name()": {
        "details": "See {IERC721Metadata-name}."
      },
      "ownerOf(uint256)": {
        "details": "See {IERC721-ownerOf}."
      },
      "safeTransferFrom(address,address,uint256)": {
        "details": "See {IERC721-safeTransferFrom}."
      },
      "safeTransferFrom(address,address,uint256,bytes)": {
        "details": "See {IERC721-safeTransferFrom}."
      },
      "setApprovalForAll(address,bool)": {
        "details": "See {IERC721-setApprovalForAll}."
      },
      "supportsInterface(bytes4)": {
        "details": "See {IERC165-supportsInterface}"
      },
      "symbol()": {
        "details": "See {IERC721Metadata-symbol}."
      },
      "tokenURI(uint256)": {
        "details": "See {IERC721Metadata-tokenURI}."
      },
      "transferFrom(address,address,uint256)": {
        "details": "See {IERC721-transferFrom}."
      }
    },
    "version": 1
  },
  "userdoc": {
    "kind": "user",
    "methods": {},
    "version": 1
  }
}